:020000040800F2
:1000000000500020811A000899180008A118000863
:10001000A9180008B1180008B9180008000000006D
:10002000000000000000000000000000C1180008EF
:10003000CD18000800000000D9180008E5180008D5
:10004000C91A0008C91A0008C91A0008C91A000804
:10005000C91A0008C91A0008C91A0008C91A0008F4
:10006000C91A0008C91A0008C91A0008C91A0008E4
:10007000C91A0008C91A0008C91A0008C91A0008D4
:10008000C91A0008C91A0008C91A0008C91A0008C4
:10009000C91A0008C91A0008C91A0008C91A0008B4
:1000A000C91A0008C91A0008C91A0008C91A0008A4
:1000B000C91A0008C91A0008C91A0008C91A000894
:1000C000C91A0008C91A0008C91A0008C91A000884
:1000D000C91A0008C91A0008C91A0008C91A000874
:1000E000C91A0008C91A0008C91A0008000000004F
:1000F0000000000000000000000000000000000000
:0C01000000000000000000005FF808F1A3
:1001100010B5054C237833B9044B13B10448AFF341
:1001200000800123237010BDD401002000000000D6
:100130002080000808B5034B1BB103490348AFF307
:10014000008008BD00000000D801002020800008C9
:10015000034613F8012B002AFBD1181A0138704707
:1001600081F0004102E000BF83F0004330B54FEA68
:1001700041044FEA430594EA050F08BF90EA020FD5
:100180001FBF54EA000C55EA020C7FEA645C7FEA68
:10019000655C00F0E2804FEA5454D4EB5555B8BF8B
:1001A0006D420CDD2C4480EA020281EA030382EAFC
:1001B000000083EA010180EA020281EA0303362D8E
:1001C00088BF30BD11F0004F4FEA01314FF4801C61
:1001D0004CEA113102D0404261EB410113F0004F73
:1001E0004FEA03334CEA133302D0524263EB43032A
:1001F00094EA050F00F0A780A4F10104D5F1200EC8
:100200000DDB02FA0EFC22FA05F2801841F1000122
:1002100003FA0EF2801843FA05F359410EE0A5F1F6
:1002200020050EF1200E012A03FA0EFC28BF4CF027
:10023000020C43FA05F3C01851EBE37101F00045DD
:1002400007D54FF0000EDCF1000C7EEB00006EEBEA
:100250000101B1F5801F1BD3B1F5001F0CD3490874
:100260005FEA30004FEA3C0C04F101044FEA4452CB
:1002700012F5800F80F09A80BCF1004F08BF5FEA52
:10028000500C50F1000041EB045141EA050130BD32
:100290005FEA4C0C404141EB0101013C28BFB1F544
:1002A000801FE9D291F0000F04BF01460020B1FA8F
:1002B00081F308BF2033A3F10B03B3F120020CDA62
:1002C0000C3208DD02F1140CC2F10C0201FA0CF040
:1002D00021FA02F10CE002F11402D8BFC2F1200CA5
:1002E00001FA02F120FA0CFCDCBF41EA0C0190405B
:1002F000E41AA2BF01EB0451294330BD6FEA0404A4
:100300001F3C1CDA0C340EDC04F11404C4F120028E
:1003100020FA04F001FA02F340EA030021FA04F3A0
:1003200045EA030130BDC4F10C04C4F1200220FAF7
:1003300002F001FA04F340EA0300294630BD21FA35
:1003400004F0294630BD94F0000F83F4801306BFFB
:1003500081F480110134013D4EE77FEA645C18BFEF
:100360007FEA655C29D094EA050F08BF90EA020F86
:1003700005D054EA000C04BF1946104630BD91EA7E
:10038000030F1EBF0021002030BD5FEA545C05D181
:100390004000494128BF41F0004130BD14F58004C0
:1003A0003CBF01F5801130BD01F0004545F0FE4134
:1003B00041F470014FF0000030BD7FEA645C1ABF69
:1003C000194610467FEA655C1CBF0B46024650EAA0
:1003D000013406BF52EA033591EA030F41F40021CC
:1003E00030BD00BF90F0000F04BF0021704730B552
:1003F0004FF4806404F132044FF000054FF0000127
:1004000050E700BF90F0000F04BF0021704730B5E7
:100410004FF4806404F1320410F0004548BF4042BC
:100420004FF000013EE700BF42004FEAE2014FEA11
:1004300031014FEA02701FBF12F07F4393F07F4FEC
:1004400081F06051704732F07F4208BF704793F0EF
:100450007F4F04BF41F40021704730B54FF4607402
:1004600001F0004521F000411CE700BF50EA010205
:1004700008BF704730B54FF000050AE050EA0102AE
:1004800008BF704730B511F0004502D5404261EB1E
:1004900041014FF4806404F132045FEA915C3FF45F
:1004A000D8AE4FF003025FEADC0C18BF03325FEAFC
:1004B000DC0C18BF033202EBDC02C2F1200300FAAD
:1004C00003FC20FA02F001FA03FE40EA0E0021FAD2
:1004D00002F11444BDE600BF70B54FF0FF0C4CF4C0
:1004E000E06C1CEA11541DBF1CEA135594EA0C0F72
:1004F00095EA0C0F00F0DEF82C4481EA030621EAAD
:100500004C5123EA4C5350EA013518BF52EA0335E7
:1005100041F4801143F4801338D0A0FB02CE4FF099
:100520000005E1FB02E506F00042E0FB03E54FF0C9
:100530000006E1FB03569CF0000F18BF4EF0010EC1
:10054000A4F1FF04B6F5007F64F5407404D25FEABD
:100550004E0E6D4146EB060642EAC62141EA555170
:100560004FEAC52040EA5E504FEACE2EB4F1FD0CB2
:1005700088BFBCF5E06F1ED8BEF1004F08BF5FEA30
:10058000500E50F1000041EB045170BD06F00046E2
:1005900046EA010140EA020081EA0301B4EB5C048F
:1005A000C2BFD4EB0C0541EA045170BD41F4801187
:1005B0004FF0000E013C00F3AB8014F1360FDEBFAC
:1005C000002001F0004170BDC4F10004203C35DA88
:1005D0000C341BDC04F11404C4F1200500FA05F30B
:1005E00020FA04F001FA05F240EA020001F00042AC
:1005F00021F0004110EBD37021FA04F642EB060122
:100600005EEA430E08BF20EAD37070BDC4F10C044B
:10061000C4F1200500FA04F320FA05F001FA04F20F
:1006200040EA020001F0004110EBD37041F10001FB
:100630005EEA430E08BF20EAD37070BDC4F1200506
:1006400000FA05F24EEA020E20FA04F301FA05F26E
:1006500043EA020321FA04F001F0004121FA04F216
:1006600020EA020000EBD3705EEA430E08BF20EAE6
:10067000D37070BD94F0000F0FD101F00046400020
:1006800041EB010111F4801F08BF013CF7D041EAA2
:10069000060195F0000F18BF704703F000465200A6
:1006A00043EB030313F4801F08BF013DF7D043EA77
:1006B0000603704794EA0C0F0CEA135518BF95EA2D
:1006C0000C0F0CD050EA410618BF52EA4306D1D1B4
:1006D00081EA030101F000414FF0000070BD50EAD3
:1006E000410606BF1046194652EA430619D094EA5D
:1006F0000C0F02D150EA013613D195EA0C0F05D147
:1007000052EA03361CBF104619460AD181EA03019A
:1007100001F0004141F0FE4141F470014FF0000052
:1007200070BD41F0FE4141F4780170BD70B54FF0ED
:10073000FF0C4CF4E06C1CEA11541DBF1CEA13556D
:1007400094EA0C0F95EA0C0F00F0A7F8A4EB05044F
:1007500081EA030E52EA03354FEA013100F0888046
:100760004FEA03334FF0805545EA131343EA12630F
:100770004FEA022245EA111545EA10654FEA0026C4
:100780000EF000419D4208BF964244F1FD0404F57D
:10079000407402D25B084FEA3202B61A65EB0305D9
:1007A0005B084FEA32024FF480104FF4002CB6EB96
:1007B000020E75EB030E22BFB61A754640EA0C0016
:1007C0005B084FEA3202B6EB020E75EB030E22BF56
:1007D000B61A754640EA5C005B084FEA3202B6EB97
:1007E000020E75EB030E22BFB61A754640EA9C0056
:1007F0005B084FEA3202B6EB020E75EB030E22BF26
:10080000B61A754640EADC0055EA060E18D04FEAE3
:10081000051545EA16754FEA06164FEAC30343EA83
:1008200052734FEAC2025FEA1C1CC0D111F4801F50
:100830000BD141EA00014FF000004FF0004CB6E749
:1008400011F4801F04BF01430020B4F1FD0C88BFE8
:10085000BCF5E06F3FF6AFAEB5EB030C04BFB6EBF3
:10086000020C5FEA500C50F1000041EB045170BDE6
:100870000EF0004E4EEA113114EB5C04C2BFD4EB13
:100880000C0541EA045170BD41F480114FF0000E97
:10089000013C90E645EA060E8DE60CEA135594EA13
:1008A0000C0F08BF95EA0C0F3FF43BAF94EA0C0F16
:1008B0000AD150EA01347FF434AF95EA0C0F7FF48B
:1008C00025AF104619462CE795EA0C0F06D152EADF
:1008D00003353FF4FDAE1046194622E750EA4106C3
:1008E00018BF52EA43067FF4C5AE50EA41047FF4D4
:1008F0000DAF52EA43057FF4EBAE12E74FF0FF3C39
:1009000006E000BF4FF0010C02E000BF4FF0010C09
:100910004DF804CD4FEA410C7FEA6C5C4FEA430C82
:1009200018BF7FEA6C5C1BD001B050EA410C0CBFD1
:1009300052EA430C91EA030F02BF90EA020F002033
:10094000704710F1000F91EA030F58BF994208BF9A
:1009500090422CBFD8176FEAE37040F00100704757
:100960004FEA410C7FEA6C5C02D150EA013C07D1AE
:100970004FEA430C7FEA6C5CD6D152EA033CD3D0F9
:100980005DF8040B704700BF8446104662468C46F3
:100990001946634600E000BF01B5FFF7B7FF002826
:1009A00048BF10F1000F01BD4DF808EDFFF7F4FF4F
:1009B0000CBF012000205DF808FB00BF4DF808EDDA
:1009C000FFF7EAFF34BF012000205DF808FB00BFFD
:1009D0004DF808EDFFF7E0FF94BF012000205DF81F
:1009E00008FB00BF4DF808EDFFF7CEFF94BF0120D4
:1009F00000205DF808FB00BF4DF808EDFFF7C4FFCD
:100A000034BF012000205DF808FB00BF4FEA410C15
:100A10007FEA6C5C02D150EA013C0AD14FEA430CF8
:100A20007FEA6C5C02D152EA033C02D14FF0000035
:100A300070474FF0010070474FEA410212F5001273
:100A400015D211D56FF47873B3EB625212D94FEA15
:100A5000C12343F0004343EA505311F0004F23FAFF
:100A600002F018BF404270474FF00000704750EA54
:100A7000013005D111F0004008BF6FF00040704711
:100A80004FF00000704700BF4A0011D212F500126B
:100A900011D20DD56FF47873B3EB62520ED44FEAD6
:100AA000C12343F0004343EA505323FA02F0704756
:100AB0004FF00000704750EA013002D14FF0FF3094
:100AC00070474FF0000070474FEA4102B2F1E04337
:100AD00024BFB3F5001CDCF1FE5C0DD901F0004C25
:100AE0004FEAC0024CEA5070B2F1004F40EB830075
:100AF00008BF20F00100704711F0804F21D113F1A1
:100B00003872BCBF01F00040704741F480114FEAD9
:100B10005252C2F11802C2F1200C10FA0CF320FA62
:100B200002F018BF40F001004FEAC1234FEAD3237F
:100B300003FA0CFC40EA0C0023FA02F34FEA4303E9
:100B4000CCE77FEA625307D150EA01331EBF4FF072
:100B5000FE4040F44000704701F0004040F0FE408D
:100B600040F40000704700BF38B50022002304465F
:100B70000D46FFF723FF28B920462946BDE8384037
:100B800000F00AB8204605F1004100F005F84042A7
:100B900061EB410138BD00BFD0B500220B4B0646CA
:100BA0000F46FFF799FCFFF76FFF0446FFF71AFCAB
:100BB0000022074BFFF790FC02460B4630463946B1
:100BC000FFF7D2FAFFF760FF2146D0BD0000F03DED
:100BD0000000F041B0B48FB000AF786040F2B113C4
:100BE000FB62072387F83030072387F83130012371
:100BF00087F83230FF2387F83630642387F83730A0
:100C00000823BB867B681D4607F10C040FCC0FC57B
:100C10000FCC0FC594E8070085E8070078683C37DB
:100C2000BD46B0BC704780B582B000AF78607B68CD
:100C300098687B689B890022194601F047FC0120D7
:100C400000F0A6FF7B6898687B689B8901221946A3
:100C500001F03CFC642000F09BFF00BF0837BD465C
:100C600080BD80B584B000AF7860396001217868BC
:100C700000F012FA0346BB73BB7BFB733B68002B8F
:100C800007D1BB7B23F00703FB737B680022DA618B
:100C90003EE03B68012B0CD197F90E3023F007039F
:100CA0005BB243F001035BB2FB737B680122DA6144
:100CB0002EE03B68032B0CD197F90E3023F007038D
:100CC0005BB243F003035BB2FB737B680322DA6120
:100CD0001EE03B68052B0CD197F90E3023F007037B
:100CE0005BB243F005035BB2FB737B680522DA61FC
:100CF0000EE03B68062B0BD197F90E3023F007036B
:100D00005BB243F006035BB2FB737B680622DA61D9
:100D1000FB7B1A460121786800F0D8F900BF103734
:100D2000BD4680BD80B584B000AFF860B9603B605F
:100D30001346FB80FB681868FB689B8800221946F5
:100D400001F0C4FBFB689869FA884FF4FA63B9684C
:100D500002F0ECF800BFFB689B69184602F0ECFC5F
:100D60000346012BF7D1FB6898693A8B4FF4FA637D
:100D7000396802F01FFA00BFFB689B69184602F051
:100D8000DBFC0346012BF7D1FB681868FB689B88E6
:100D90000122194601F09AFB00BF1037BD4680BD05
:100DA00080B584B000AFF860B9603B601346FB804B
:100DB000FB681868FB689B880022194601F086FBD7
:100DC000FB689869FA884FF4FA63B96802F0AEF8E4
:100DD00000BFFB689B69184602F0AEFC0346012B7E
:100DE000F7D1FB6898693A8B4FF4FA63396802F0DF
:100DF0009DF800BFFB689B69184602F09DFC034606
:100E0000012BF7D1FB681868FB689B880122194603
:100E100001F05CFB00BF1037BD4680BD80B584B0DB
:100E200000AF78600B46FB702621786800F034F93B
:100E30000346BB73FB78002B04D0BB7B43F0080355
:100E4000FB7303E0BB7B23F00803FB73FB7B1A46B9
:100E50002621786800F03AF90A2000F099FE00BFD8
:100E60001037BD4680BD000080B596B000AF7860F9
:100E7000174A07F1080311465022184603F08FFD68
:100E80007B6893F824301A46012393401846FFF7F5
:100E9000B9FA7B6893F82530DB0058333B44503B6C
:100EA000D3E90023FFF742FC02460B4610461946E1
:100EB000FFF7C2FD0346102BCCBF01230023DBB29A
:100EC00019467868FFF7AAFF00BF5837BD4680BDB6
:100ED0003880000880B584B000AF786039603B6826
:100EE000DB045B11FB60FB681B0CFB72FB7A1A4690
:100EF0000621786800F0EAF8052000F049FEFB685A
:100F00001B0AFB72FB7A1A460721786800F0DEF8AC
:100F1000052000F03DFEFB68FB72FB7A1A460821B3
:100F2000786800F0D3F8052000F032FE00BF1037DB
:100F3000BD4680BD80B584B000AF786039603B6845
:100F40000C2B01DD0C233B603B68062B01DC0723E7
:100F50003B601E21786800F09FF80346FB730A206F
:100F600000F016FE3B68DBB21B01DAB2FB7B03F03C
:100F70000F03DBB21344BB73BB7B1A461E21786898
:100F800000F0A4F80A2000F003FE7868FFF76CFF79
:100F900000BF1037BD4680BD80B582B000AF78601D
:100FA0000B46FB70FB781A460921786800F08EF832
:100FB0000A2000F0EDFD00BF0837BD4680BD0000EF
:100FC00080B584B000AF78600B46FB700023FB73E4
:100FD000FB782C2B01D82D23FB70FB78F02B01D94B
:100FE000F023FB70FB78782B09D8FB782D3B124A55
:100FF00082FB03125210DB17D31AFB730BE0FB7852
:10100000F02B08D8FB781E330B4A82FB0312921098
:10101000DB17D31AFB73FB7B2033FB73FB7B1A4676
:101020000B21786800F052F80A2000F0B1FD00BFF3
:101030001037BD4680BD00BF6766666680B584B068
:1010400000AF78601E21786800F026F80346FB7335
:10105000FB7B43F00703BB73BB7B1A461E217868FA
:1010600000F034F80A2000F093FD00BF1037BD46B1
:1010700080BD80B582B000AF78600B46FB70FB7816
:101080001A463921786800F021F80A2000F080FD26
:1010900000BF0837BD4680BD80B586B002AF78601E
:1010A0000B46FB70FB7803F07F03DBB2BB7307F1E9
:1010B0000F0307F10E010122009201227868FFF769
:1010C00031FEFB7B18461037BD4680BD80B586B02B
:1010D00002AF78600B46FB701346BB70FB7863F081
:1010E0007F03DBB2BB73BB78FB7307F10F0307F120
:1010F0000E010122009201227868FFF751FE00BF25
:101100001037BD4680BD80B586B000AFF8607A600C
:101110001A460B46FB721346BB72FB7A63F07F03E1
:10112000DBB2FB75FB681868FB689B8800221946D8
:1011300001F0CCF9FB68986907F117014FF4FA63E5
:10114000012201F0F3FE00BFFB689B69184602F024
:10115000F3FA0346012BF7D1FB689869BB7A9AB280
:101160004FF4FA63796801F0E1FE00BFFB689B6908
:10117000184602F0E1FA0346012BF7D1FB68186824
:10118000FB689B880122194601F0A0F900BF1837BF
:10119000BD4680BD80B483B000AF7860012318469F
:1011A0000C37BD4680BC704780B586B000AFF86094
:1011B000B96011461A460B46FB711346BB80FB68AB
:1011C000DB697B610121F868FFF74BFD0E21F868B0
:1011D000FFF762FF0346FB74FB7C1A460D21F8689B
:1011E000FFF774FFFB791A462221F868FFF76EFFBC
:1011F000FB79BA680021F868FFF785FF0321F868DA
:10120000FFF72FFD1221F868FFF746FF0346FB7436
:10121000FB7C03F00803002B0AD0FF221221F868A0
:10122000FFF754FF7969F868FFF71BFD01230FE012
:10123000BB88013BBB80BB88002B05D17969F8686E
:10124000FFF70FFD002303E0012000F0A1FCD9E728
:1012500018461837BD4680BD80B584B000AF7860B1
:101260007868FFF797FF0346002B00F09680002177
:101270007868FFF7F6FC0A2000F08AFC0121786804
:10128000FFF70AFF0346FB730A2000F081FCFB7B9B
:1012900063F07F03BB73BB7B1A4601217868FFF7BD
:1012A00015FF642000F074FC7B681B6A194678689F
:1012B000FFF710FE7B6893F82A3019467868FFF72D
:1012C0006BFE7B6893F82B3019467868FFF778FE41
:1012D00023220C217868FFF7F9FE7868FFF7AEFE4D
:1012E0007B6893F8243019467868FFF723FEFF22C5
:1012F0001F217868FFF7EAFE0023BB737B6893F831
:1013000025301B01DAB27B6893F826305B00DBB234
:101310001344BB73BB7B1A461D217868FFF7D6FECA
:101320007868FFF7A1FD7B681B8D1B0A9BB2DBB2BF
:101330001A4620217868FFF7C9FE7B681B8DDBB257
:101340001A4621217868FFF7C1FE40217868FFF72F
:10135000A3FE0346FB73FB7B43F03F03BB73BB7BE6
:101360001A4640217868FFF7B1FE01217868FFF73F
:1013700078FC7B680122DA610A2000F009FC422136
:101380007868FFF789FE0346FB73FB7B122B01D1C4
:10139000C82304E04FF4CA7301E040F2F713184683
:1013A0001037BD4680BD0000B0B58EB000AF00F074
:1013B0008DFB00F073F800F035F900F0FDF800F057
:1013C000BDF8314C3B461846FFF704FC25463C4629
:1013D0000FCC0FC50FCC0FC594E8070085E80700B8
:1013E000294B2A4A9A61284B294A1A60264B012226
:1013F0009A80254B264A9A60234B02229A81224BDF
:10140000234A1A61204B4FF480629A821E4B40F2AD
:10141000B1121A621C4B072283F824201A4B0722B0
:1014200083F82520184B012283F82620164BFF2233
:1014300083F82A20144B782283F82B20124B0822A1
:101440001A851148FFF7EFFB0F48FFF705FF114B17
:101450007B633A210C48FFF70CFE64230C22796B66
:101460000948FFF7A1FE0346012B05D101224FF4E5
:101470000051094801F02AF864230C22796B0248D4
:10148000FFF792FEE3E700BF780200202002002071
:10149000000C0140888000080010014080B594B025
:1014A00000AF07F1280328220021184603F0E9F9CC
:1014B00007F1140300221A605A609A60DA601A6118
:1014C0003B1D00221A605A609A60DA600223BB62F8
:1014D0000123BB631023FB6300237B6407F1280314
:1014E000184601F00BF80346002B01D000F016F966
:1014F0000F237B610023BB610023FB6100233B6260
:1015000000237B6207F114030021184601F078FAEA
:101510000346002B01D000F001F902237B60002379
:10152000FB603B1D184601F0C7FB0346002B01D0B2
:1015300000F0F4F800BF5037BD4680BD80B584B0E0
:1015400000AF3B1D00221A605A609A60184B194A7E
:101550001A60174B00229A60154B00221A73144B25
:1015600000221A75124B4FF46022DA61104B0022F0
:101570005A600F4B01221A610D4800F02DFB034603
:10158000002B01D000F0CAF800237B600123BB6070
:101590000023FB603B1D1946054800F0F5FB0346A0
:1015A000002B01D000F0BAF800BF1037BD4680BD57
:1015B000F00100200024014080B500AF174B184A0D
:1015C0001A60164B4FF482725A60144B00229A60D4
:1015D000124B0022DA60114B00221A610F4B0022DD
:1015E0005A610E4B4FF400729A610C4B0022DA6183
:1015F0000A4B00221A62094B00225A62074B002252
:101600009A62064B0A22DA62044801F00BFC034698
:10161000002B01D000F082F800BF80BD2002002026
:101620000030014080B588B000AF07F11003002200
:101630001A605A609A60DA60344B9B69334A43F00F
:1016400010039361314B9B6903F01003FB60FB684F
:101650002E4B9B692D4A43F0200393612B4B9B69D2
:1016600003F02003BB60BB68284B9B69274A43F00B
:1016700004039361254B9B6903F004037B607B6843
:10168000224B9B69214A43F0080393611F4B9B69DE
:1016900003F008033B603B6800224FF400511C48F4
:1016A00000F014FF012203211A4800F00FFF4FF44D
:1016B00000533B6101237B610023BB610223FB617B
:1016C00007F110031946124800F07CFD03233B612B
:1016D00001237B610023BB610223FB6107F110033F
:1016E00019460C4800F06EFD4FF480633B610A4BD5
:1016F0007B610023BB6107F110031946054800F028
:1017000061FD00BF2037BD4680BD00BF0010024014
:1017100000100140000C01400000111080B400AF27
:1017200072B600BF00BFFDE780B485B000AF154BB7
:101730009B69144A43F001039361124B9B6903F0C8
:101740000103BB60BB680F4BDB690E4A43F080535B
:10175000D3610C4BDB6903F080537B607B680A4BE1
:101760005B68FB60FB6823F0E063FB60FB6843F0B1
:101770008063FB60044AFB68536000BF1437BD46BA
:1017800080BC7047001002400000014080B588B066
:1017900000AF786007F1100300221A605A609A6067
:1017A000DA607B681B68144A934221D1134B9B6912
:1017B000124A43F400739361104B9B6903F4007366
:1017C000FB60FB680D4B9B690C4A43F0040393617B
:1017D0000A4B9B6903F00403BB60BB680F233B61AA
:1017E00003237B6107F110031946054800F0EAFC6A
:1017F00000BF2037BD4680BD0024014000100240DC
:101800000008014080B588B000AF786007F1100390
:1018100000221A605A609A60DA607B681B681B4A73
:1018200093422FD11A4B9B69194A43F48053936119
:10183000174B9B6903F48053FB60FB68144B9B6957
:10184000134A43F004039361114B9B6903F00403B3
:10185000BB60BB68A0233B6102237B610323FB6168
:1018600007F1100319460B4800F0ACFC40233B6124
:1018700000237B610023BB6107F110031946054873
:1018800000F0A0FC00BF2037BD4680BD0030014005
:10189000001002400008014080B400AF00BFFDE727
:1018A00080B400AF00BFFDE780B400AF00BFFDE72C
:1018B00080B400AF00BFFDE780B400AF00BFFDE71C
:1018C00080B400AF00BFBD4680BC704780B400AF9D
:1018D00000BFBD4680BC704780B400AF00BFBD46AE
:1018E00080BC704780B500AF00F036F900BF80BD06
:1018F00080B400AF01231846BD4680BC704780B558
:1019000082B000AF7860396003F00EF8034616220B
:101910001A604FF0FF3318460837BD4680BD80B5CA
:1019200082B000AF78604FF0FF317868FFF7E7FFD3
:1019300000BFFDE780B586B000AFF860B9607A609F
:1019400000237B610AE0AFF300800146BB685A1CAC
:10195000BA60CAB21A707B6901337B617A697B68AD
:101960009A42F0DB7B6818461837BD4680BD80B5CB
:1019700086B000AFF860B9607A6000237B6109E04F
:10198000BB685A1CBA601B781846AFF300807B69AD
:1019900001337B617A697B689A42F1DB7B68184688
:1019A0001837BD4680BD80B483B000AF78604FF07B
:1019B000FF3318460C37BD4680BC704780B483B0F7
:1019C00000AF786039603B684FF400525A600023E2
:1019D00018460C37BD4680BC704780B483B000AF5A
:1019E0007860012318460C37BD4680BC704780B430
:1019F00085B000AFF860B9607A60002318461437EC
:101A0000BD4680BC7047000080B586B000AF7860EE
:101A1000144A154BD31A7B617B693B61134B1B68DE
:101A2000002B02D1114B124A1A60104B1A687B68C6
:101A300013443A699A4207D202F076FF03460C2219
:101A40001A604FF0FF3309E0084B1B68FB60074B3F
:101A50001A687B681344054A1360FB6818461837F8
:101A6000BD4680BD0050002000040000A4020020FC
:101A7000F803002080B400AF00BFBD4680BC7047B3
:101A8000FFF7F8FF0B480C490C4A002302E0D4583A
:101A9000C4500433C4188C42F9D3094A094C0023BA
:101AA00001E013600432A242FBD302F043FFFFF7D0
:101AB0007BFC704700000020D4010020F484000863
:101AC000D4010020F8030020FEE7000080B500AF3D
:101AD000084B1B68074A43F010031360032000F013
:101AE0003DFB0F2000F008F8FFF71EFE002318460C
:101AF00080BD00BF0020024080B582B000AF78609A
:101B0000124B1A68124B1B7819464FF47A73B3FBC9
:101B1000F1F3B2FBF3F3184600F047FB0346002B4A
:101B200001D001230EE07B680F2B0AD800227968D0
:101B30004FF0FF3000F01DFB064A7B681360002366
:101B400000E0012318460837BD4680BD0000002094
:101B5000080000200400002080B400AF054B1B7873
:101B60001A46054B1B681344034A136000BFBD4669
:101B700080BC704708000020A802002080B400AF9D
:101B8000024B1B681846BD4680BC7047A802002067
:101B900080B584B000AF7860FFF7F0FFB8607B6875
:101BA000FB60FB68B3F1FF3F05D00A4B1B781A4678
:101BB000FB681344FB6000BFFFF7E0FF0246BB6811
:101BC000D31AFA689A42F7D800BF00BF1037BD4653
:101BD00080BD00BF0800002080B586B000AF7860EF
:101BE0000023FB7500233B610023BB600023FB60E7
:101BF0007B68002B01D10123BEE07B689B68002B32
:101C00007B689B6A002B09D17B680022DA627B68C3
:101C1000002283F824207868FFF7B8FD786800F088
:101C2000ABF90346FB757B689B6A03F01003002B3E
:101C300040F09980FB7D002B40F095807B689B6A8B
:101C400023F4885323F0020343F002027B689A6274
:101C50007B685A687B68DB691A437B681B7B5B0087
:101C60001343BA681343BB607B689B68B3F5807FFE
:101C700003D07B689B68012B02D14FF4807300E096
:101C800000233A6913433B617B681B7D012B19D10B
:101C90007B681B7B002B09D17B689B69013B5A0346
:101CA0003B69134343F400633B610BE07B689B6A31
:101CB00043F020027B689A627B68DB6A43F0010292
:101CC0007B68DA627B681B685B6823F469417B6828
:101CD0001B683A690A435A607B681B689A68284BFC
:101CE00013407A681268B9680B4393607B689B68FD
:101CF000B3F5807F03D07B689B68012B04D17B68A0
:101D00001B69013B1B05FB607B681B68DB6A23F4D6
:101D100070017B681B68FA680A43DA627B681B689B
:101D20009A68184B1340BA689A420BD17B6800221C
:101D3000DA627B689B6A23F0030343F001027B684D
:101D40009A6218E07B689B6A23F0120343F010024A
:101D50007B689A627B68DB6A43F001027B68DA6227
:101D60000123FB7507E07B689B6A43F010027B68E8
:101D70009A620123FB75FB7D18461837BD4680BD6E
:101D8000FDF7E1FFFE0E1FFF80B485B000AF786065
:101D900039600023FB730023BB607B6893F8243019
:101DA000012B01D10223DCE07B68012283F824208F
:101DB0003B685B68062B1CD87B681B68596B3B68CB
:101DC0005A6813469B001344053B1F2202FA03F393
:101DD000DB4319403B6818683B685A6813469B0010
:101DE0001344053B00FA03F27B681B680A435A63FD
:101DF0003CE03B685B680C2B1CD87B681B68196B4C
:101E00003B685A6813469B001344233B1F2202FA87
:101E100003F3DB4319403B6818683B685A68134674
:101E20009B001344233B00FA03F27B681B680A43C0
:101E30001A631BE07B681B68D96A3B685A681346C3
:101E40009B001344413B1F2202FA03F3DB4319407A
:101E50003B6818683B685A6813469B001344413B33
:101E600000FA03F27B681B680A43DA623B681B686E
:101E7000092B1CD97B681B68D9683B681A68134614
:101E80005B0013441E3B072202FA03F3DB431940B5
:101E90003B6898683B681A6813465B0013441E3B16
:101EA00000FA03F27B681B680A43DA6019E07B687A
:101EB0001B6819693B681A6813465B0013440722C4
:101EC00002FA03F3DB4319403B6898683B681A68E1
:101ED00013465B00134400FA03F27B681B680A4355
:101EE0001A613B681B68102B03D03B681B68112BE1
:101EF00032D17B681B681D4A934225D17B681B68E1
:101F00009B6803F40003002B26D17B681B689A684A
:101F10007B681B6842F400029A603B681B68102BC8
:101F20001AD1134B1B68134AA2FB03239A0C1346C6
:101F30009B0013445B00BB6002E0BB68013BBB60DD
:101F4000BB68002BF9D107E07B689B6A43F0200255
:101F50007B689A620123FB737B68002283F824204C
:101F6000FB7B18461437BD4680BC704700240140F7
:101F70000000002083DE1B4380B584B000AF786092
:101F80000023FB607B681B689B6803F00103012B47
:101F90002ED17B681B689A687B681B6822F001025F
:101FA0009A60FFF7EBFDF8601BE0FFF7E7FD0246E4
:101FB000FB68D31A022B14D97B681B689B6803F05B
:101FC0000103012B0DD17B689B6A43F010027B68F3
:101FD0009A627B68DB6A43F001027B68DA62012364
:101FE00007E07B681B689B6803F00103012BDCD0D2
:101FF000002318461037BD4680BD000080B485B070
:1020000000AF78607B6803F00703FB600C4BDB6874
:10201000BB60BA684FF6FF031340BB60FB681A024F
:10202000BB68134343F0BF6343F40033BB60044A0F
:10203000BB68D36000BF1437BD4680BC704700BF8B
:1020400000ED00E080B400AF044BDB681B0A03F036
:1020500007031846BD4680BC704700BF00ED00E096
:1020600080B483B000AF03463960FB7197F9073045
:10207000002B0ADB3B68DAB20C4997F907301201F2
:10208000D2B20B4483F800230AE03B68DAB2084975
:10209000FB7903F00F03043B1201D2B20B441A7612
:1020A00000BF0C37BD4680BC704700BF00E100E0B8
:1020B00000ED00E080B489B000AFF860B9607A60EC
:1020C000FB6803F00703FB61FB69C3F10703042B03
:1020D00028BF0423BB61FB690433062B02D9FB69CB
:1020E000033B00E000237B614FF0FF32BB6902FA43
:1020F00003F3DA43BB681A407B699A404FF0FF3123
:102100007B6901FA03F3D9437B680B4013431846FC
:102110002437BD4680BC704780B582B000AF786080
:102120007B68013BB3F1807F01D301230FE00A4AB2
:102130007B68013B53600F214FF0FF30FFF790FFAA
:10214000054B00229A60044B07221A6000231846B0
:102150000837BD4680BD00BF10E000E080B582B00A
:1021600000AF78607868FFF749FF00BF0837BD46C9
:1021700080BD80B586B000AF0346B9607A60FB735E
:1021800000237B61FFF75EFF78617A68B968786940
:10219000FFF790FF024697F90F3011461846FFF7F8
:1021A0005FFF00BF1837BD4680BD80B582B000AF6D
:1021B00078607868FFF7B0FF034618460837BD46D9
:1021C00080BD000080B48BB000AF78603960002320
:1021D0007B6200233B6269E101227B6A02FA03F31E
:1021E000FB613B681B68FA691340BB61BA69FB6914
:1021F0009A4240F058813B685B689A4A93425ED0AD
:10220000984A934275D8984A934258D0964A934236
:102210006FD8964A934252D0944A934269D8944ACE
:1022200093424CD0924A934263D8924A934246D00A
:10223000904A93425DD8122B2AD8122B59D801A26A
:1022400052F823F0BF22000899220008AB220008B0
:10225000ED220008F3220008F3220008F322000810
:10226000F3220008F3220008F3220008F3220008FA
:10227000F3220008F3220008F3220008F3220008EA
:10228000F3220008F3220008A1220008B52200086A
:10229000794A934213D02CE03B68DB683B6229E02B
:1022A0003B68DB6804333B6224E03B68DB6808334F
:1022B0003B621FE03B68DB680C333B621AE03B6823
:1022C0009B68002B02D104233B6213E03B689B68B0
:1022D000012B05D108233B627B68FA691A6109E08A
:1022E00008233B627B68FA695A6103E000233B6282
:1022F00000E000BFBB69FF2B01D87B6801E07B6871
:1023000004337B61BB69FF2B02D87B6A9B0002E030
:102310007B6A083B9B003B617B691A680F213B6924
:1023200001FA03F3DB431A40396A3B6901FA03F30C
:102330001A437B691A603B685B6803F08053002B8B
:1023400000F0B1804D4B9B694C4A43F0010393610F
:102350004A4B9B6903F00103BB60BB68484A7B6A38
:102360009B08023352F82330FB607B6A03F00303BF
:102370009B000F2202FA03F3DB43FA681340FB6071
:102380007B68404A934213D07B683F4A93420DD00A
:102390007B683E4A934207D07B683D4A934201D115
:1023A000032306E0042304E0022302E0012300E00B
:1023B00000237A6A02F0030292009340FA68134302
:1023C000FB602F497B6A9B080233FA6841F823209F
:1023D0003B685B6803F48013002B06D02D4B9A6892
:1023E0002C49BB6913438B6006E02A4B9A68BB6992
:1023F000DB43284913408B603B685B6803F40013A0
:10240000002B06D0234BDA682249BB691343CB600B
:1024100006E0204BDA68BB69DB431E491340CB6002
:102420003B685B6803F40033002B06D0194B5A68F5
:102430001849BB6913434B6006E0164B5A68BB69E9
:10244000DB43144913404B603B685B6803F4803303
:10245000002B21D00F4B1A680E49BB6913430B6048
:1024600021E000BF000032100000311000002210F7
:102470000000211000001210000011100010024096
:102480000000014000080140000C01400010014024
:1024900000140140000401400B4B1A68BB69DB4388
:1024A000094913400B607B6A01337B623B681A6801
:1024B0007B6A22FA03F3002B7FF48EAE00BF00BFCD
:1024C0002C37BD4680BC70470004014080B483B007
:1024D00000AF78600B467B8013467B707B78002BC7
:1024E00003D07A887B681A6103E07B881A047B68D2
:1024F0001A6100BF0C37BD4680BC704780B586B0FE
:1025000000AF78607B68002B01D1012372E27B6809
:102510001B6803F00103002B00F08780924B5B687F
:1025200003F00C03042B0CD08F4B5B6803F00C03FF
:10253000082B12D18C4B5B6803F48033B3F5803FDA
:102540000BD1894B1B6803F40033002B6CD07B68E4
:102550005B68002B68D101234CE27B685B68B3F5B4
:10256000803F06D1804B1B687F4A43F48033136061
:102570002EE07B685B68002B0CD17B4B1B687A4A92
:1025800023F480331360784B1B68774A23F480234D
:1025900013601DE07B685B68B3F5A02F0CD1724B14
:1025A0001B68714A43F4802313606F4B1B686E4AAB
:1025B00043F4803313600BE06B4B1B686A4A23F4CF
:1025C00080331360684B1B68674A23F480231360D1
:1025D0007B685B68002B13D0FFF7D0FA386108E006
:1025E000FFF7CCFA02463B69D31A642B01D90323C7
:1025F00000E25D4B1B6803F40033002BF0D014E0C5
:10260000FFF7BCFA386108E0FFF7B8FA02463B6909
:10261000D31A642B01D90323ECE1534B1B6803F459
:102620000033002BF0D100E000BF7B681B6803F093
:102630000203002B63D04C4B5B6803F00C03002BB0
:102640000BD0494B5B6803F00C03082B1CD1464BA5
:102650005B6803F48033002B16D1434B1B6803F0F7
:102660000203002B05D07B681B69012B01D00123DD
:10267000C0E13D4B1B6823F0F8027B685B69DB001F
:10268000394913430B603AE07B681B69002B20D06B
:10269000364B01221A60FFF771FA386108E0FFF744
:1026A0006DFA02463B69D31A022B01D90323A1E13B
:1026B0002D4B1B6803F00203002BF0D02A4B1B6844
:1026C00023F0F8027B685B69DB00274913430B604A
:1026D00015E0264B00221A60FFF750FA386108E037
:1026E000FFF74CFA02463B69D31A022B01D90323A8
:1026F00080E11D4B1B6803F00203002BF0D17B68C7
:102700001B6803F00803002B3AD07B689B69002B01
:1027100019D0174B01221A60FFF730FA386108E030
:10272000FFF72CFA02463B69D31A022B01D9032387
:1027300060E10D4B5B6A03F00203002BF0D0012037
:1027400000F09CFA1CE00A4B00221A60FFF716FA10
:1027500038610FE0FFF712FA02463B69D31A022BE9
:1027600008D9032346E100BF0010024000004242A6
:1027700080044242924B5B6A03F00203002BE9D1D2
:102780007B681B6803F00403002B00F0A680002385
:10279000FB758B4BDB6903F08053002B0DD1884B0D
:1027A000DB69874A43F08053D361854BDB6903F0D3
:1027B0008053BB60BB680123FB75824B1B6803F42D
:1027C0008073002B18D17F4B1B687E4A43F48073C3
:1027D0001360FFF7D3F9386108E0FFF7CFF902463D
:1027E0003B69D31A642B01D9032303E1754B1B68A2
:1027F00003F48073002BF0D07B68DB68012B06D1DB
:102800006F4B1B6A6E4A43F0010313622DE07B6835
:10281000DB68002B0CD16A4B1B6A694A23F0010369
:102820001362674B1B6A664A23F0040313621CE0C1
:102830007B68DB68052B0CD1614B1B6A604A43F057
:10284000040313625E4B1B6A5D4A43F0010313628B
:102850000BE05B4B1B6A5A4A23F001031362584B8F
:102860001B6A574A23F0040313627B68DB68002B62
:1028700015D0FFF783F938610AE0FFF77FF90246C8
:102880003B69D31A41F28832934201D90323B1E064
:102890004B4B1B6A03F00203002BEED014E0FFF752
:1028A0006DF938610AE0FFF769F902463B69D31A0E
:1028B00041F28832934201D903239BE0404B1B6ACB
:1028C00003F00203002BEED1FB7D012B05D13C4B25
:1028D000DB693B4A23F08053D3617B68DB69002BC3
:1028E00000F08780364B5B6803F00C03082B61D047
:1028F0007B68DB69022B46D1334B00221A60FFF75D
:102900003DF9386108E0FFF739F902463B69D31A0F
:10291000022B01D903236DE0294B1B6803F00073E0
:10292000002BF0D17B681B6AB3F5803F08D1244BA4
:102930005B6823F400327B689B68214913434B603A
:102940001F4B5B6823F474127B68196A7B685B6AAF
:102950000B431B4913434B601B4B01221A60FFF7CB
:102960000DF9386108E0FFF709F902463B69D31A0F
:10297000022B01D903233DE0114B1B6803F00073C8
:10298000002BF0D035E0104B00221A60FFF7F6F86C
:10299000386108E0FFF7F2F802463B69D31A022BD0
:1029A00001D9032326E0064B1B6803F00073002BBC
:1029B000F0D11EE07B68DB69012B07D1012319E010
:1029C0000010024000700040600042420B4B5B6808
:1029D000FB60FB6803F480327B681B6A9A4206D175
:1029E000FB6803F470127B685B6A9A4201D0012392
:1029F00000E0002318461837BD4680BD0010024095
:102A000080B584B000AF786039607B68002B01D15D
:102A10000123D0E06A4B1B6803F007033A689A422F
:102A200010D9674B1B6823F0070265493B681343C5
:102A30000B60634B1B6803F007033A689A4201D0AE
:102A40000123B8E07B681B6803F00203002B20D051
:102A50007B681B6803F00403002B05D0594B5B68AF
:102A6000584A43F4E06353607B681B6803F0080333
:102A7000002B05D0534B5B68524A43F460535360BC
:102A8000504B5B6823F0F0027B689B684D49134311
:102A90004B607B681B6803F00103002B40D07B6810
:102AA0005B68012B07D1474B1B6803F40033002BF5
:102AB00015D101237FE07B685B68022B07D1414B76
:102AC0001B6803F00073002B09D1012373E03D4B19
:102AD0001B6803F00203002B01D101236BE0394B8B
:102AE0005B6823F003027B685B68364913434B60E5
:102AF000FFF744F8F8600AE0FFF740F80246FB6889
:102B0000D31A41F28832934201D9032353E02D4B6B
:102B10005B6803F00C027B685B689B009A42EBD118
:102B2000274B1B6803F007033A689A4210D2244BE4
:102B30001B6823F0070222493B6813430B60204BBC
:102B40001B6803F007033A689A4201D0012332E080
:102B50007B681B6803F00403002B08D0194B5B68EB
:102B600023F4E0627B68DB68164913434B607B68A3
:102B70001B6803F00803002B09D0124B5B6823F499
:102B800060527B681B69DB000E4913434B6000F009
:102B900021F802460B4B5B681B0903F00F030A493F
:102BA000CB5C22FA03F3094A1360094B1B681846F1
:102BB000FEF7A2FF002318461037BD4680BD00BFB8
:102BC0000020024000100240988000080000002011
:102BD0000400002080B487B000AF0023FB60002316
:102BE000BB6000237B6100237B6000233B611E4BA5
:102BF0005B68FB60FB6803F00C03042B02D0082B1E
:102C000003D027E0194B3B6127E0FB689B0C03F0E6
:102C10000F03174AD35C7B60FB6803F48033002BFF
:102C200010D0114B5B685B0C03F00103114AD35CBD
:102C3000BB607B680D4A03FB02F2BB68B2FBF3F397
:102C40007B6104E07B680C4A02FB03F37B617B69D8
:102C50003B6102E0054B3B6100BF3B6918461C37F6
:102C6000BD4680BC704700BF0010024000127A00D1
:102C7000A8800008B880000800093D0080B485B035
:102C800000AF78600A4B1B680A4AA2FB03235B0A69
:102C90007A6802FB03F3FB6000BFFB685A1EFA6010
:102CA000002BF9D100BF00BF1437BD4680BC704770
:102CB00000000020D34D621080B586B000AF786070
:102CC00000233B610023FB607B681B6803F001036A
:102CD000002B7DD00023FB754F4BDB6903F0805345
:102CE000002B0DD14C4BDB694B4A43F08053D36131
:102CF000494BDB6903F08053BB60BB680123FB7564
:102D0000464B1B6803F48073002B18D1434B1B68A0
:102D1000424A43F480731360FEF730FF386108E0E5
:102D2000FEF72CFF02463B69D31A642B01D903231B
:102D30006DE03A4B1B6803F48073002BF0D0364BE8
:102D40001B6A03F44073FB60FB68002B2ED07B688A
:102D50005B6803F44073FA689A4227D02E4B1B6AD3
:102D600023F44073FB602E4B01221A602C4B00228F
:102D70001A60294AFB681362FB6803F00103002B09
:102D800014D0FEF7FBFE38610AE0FEF7F7FE0246BC
:102D90003B69D31A41F28832934201D9032336E0CA
:102DA0001D4B1B6A03F00203002BEED01A4B1B6A6B
:102DB00023F440727B685B68174913430B62FB7D09
:102DC000012B05D1144BDB69134A23F08053D361E7
:102DD0007B681B6803F00203002B08D00E4B5B6876
:102DE00023F440427B689B680B4913434B607B682C
:102DF0001B6803F01003002B08D0074B5B6823F41B
:102E000080027B68DB68044913434B60002318464B
:102E10001837BD4680BD00BF001002400070004062
:102E20004004424280B582B000AF78607B68002BDE
:102E300001D1012376E07B685B6A002B08D17B68B7
:102E40005B68B3F5827F09D07B680022DA6105E018
:102E50007B6800221A617B6800225A617B6800222D
:102E60009A627B6893F85130DBB2002B06D17B6805
:102E7000002283F850207868FEF7C4FC7B680222A9
:102E800083F851207B681B681A687B681B6822F0F6
:102E900040021A607B685B6803F482727B689B68FF
:102EA00003F404431A437B68DB6803F400631A43AA
:102EB0007B681B6903F002031A437B685B6903F0BC
:102EC00001031A437B689B6903F400731A437B6810
:102ED000DB6903F038031A437B681B6A03F0800345
:102EE00042EA03017B689B6A03F400527B681B681B
:102EF0000A431A607B689B691A0C7B681B6802F0A6
:102F000004025A607B681B68DA697B681B6822F4DC
:102F10000062DA617B6800225A657B68012283F8CF
:102F20005120002318460837BD4680BD80B588B0C3
:102F300000AFF860B9603B601346FB80FEF71EFEF1
:102F4000F861FB887B83FB6893F85130DBB2012B7F
:102F500001D002232AE1BB68002B02D0FB88002BA2
:102F600001D1012322E1FB6893F85030012B01D1FC
:102F700002231BE1FB68012283F85020FB68032237
:102F800083F85120FB6800225A65FB68BA681A630F
:102F9000FB68FA889A86FB68FA88DA86FB68002262
:102FA0009A63FB6800229A87FB680022DA87FB6835
:102FB00000225A64FB6800221A64FB689B68B3F520
:102FC000004F0FD1FB681B681A68FB681B6822F072
:102FD00040021A60FB681B681A68FB681B6842F4B1
:102FE00080421A60FB681B681B6803F04003402B9B
:102FF00007D0FB681B681A68FB681B6842F0400238
:103000001A60FB68DB68B3F5006F52D1FB685B6840
:10301000002B02D07B8B012B45D1FB681B6B1A88E0
:10302000FB681B68DA60FB681B6B9A1CFB681A6301
:10303000FB68DB8E9BB2013B9AB2FB68DA8632E01A
:10304000FB681B689B6803F00203022B12D1FB682C
:103050001B6B1A88FB681B68DA60FB681B6B9A1C89
:10306000FB681A63FB68DB8E9BB2013B9AB2FB687C
:10307000DA8618E0FEF782FD0246FB69D31A3A6849
:103080009A4203D83B68B3F1FF3F02D13B68002B63
:1030900009D1FB68012283F85120FB68002283F8E4
:1030A0005020032382E0FB68DB8E9BB2002BC7D14C
:1030B00053E0FB685B68002B02D07B8B012B47D170
:1030C000FB681A6BFB681B680C3312781A70FB687C
:1030D0001B6B5A1CFB681A63FB68DB8E9BB2013BBF
:1030E0009AB2FB68DA8633E0FB681B689B6803F0E2
:1030F0000203022B13D1FB681A6BFB681B680C33AD
:1031000012781A70FB681B6B5A1CFB681A63FB6809
:10311000DB8E9BB2013B9AB2FB68DA8618E0FEF7C1
:103120002DFD0246FB69D31A3A689A4203D83B68E0
:10313000B3F1FF3F02D13B68002B09D1FB680122AC
:1031400083F85120FB68002283F8502003232DE0F0
:10315000FB68DB8E9BB2002BC6D1FA693968F86830
:1031600000F0D2FB0346002B02D0FB6820225A65F8
:10317000FB689B68002B0AD100237B61FB681B68FE
:10318000DB687B61FB681B689B687B617B69FB6814
:10319000012283F85120FB68002283F85020FB684D
:1031A0005B6D002B01D0012300E00023184620377F
:1031B000BD4680BD80B588B002AFF860B9603B60A5
:1031C0001346FB80FB6893F85130DBB2012B01D032
:1031D000022304E1FB685B68B3F5827F12D1FB68D0
:1031E0009B68002B0ED1FB68042283F85120FA88DB
:1031F0003B6800931346BA68B968F86800F0F3F8C2
:103200000346ECE0FEF7BAFC7861BB68002B02D005
:10321000FB88002B01D10123E1E0FB6893F85030DB
:10322000012B01D10223DAE0FB68012283F8502050
:10323000FB68042283F85120FB6800225A65FB6872
:10324000BA689A63FB68FA889A87FB68FA88DA8713
:10325000FB6800221A63FB6800229A86FB68002242
:10326000DA86FB6800221A64FB6800225A64FB6855
:103270009B68B3F5004F0FD1FB681B681A68FB68A9
:103280001B6822F040021A60FB681B681A68FB6822
:103290001B6822F480421A60FB681B681B6803F0FD
:1032A0004003402B07D0FB681B681A68FB681B684B
:1032B00042F040021A60FB68DB68002B70D135E0F9
:1032C000FB681B689B6803F00103012B15D1FB68A9
:1032D0001B6803F10C02FB689B6B1278D2B21A7068
:1032E000FB689B6B5A1CFB689A63FB68DB8F9BB285
:1032F000013B9AB2FB68DA8718E0FEF73FFC024612
:103300007B69D31A3A689A4203D83B68B3F1FF3F0E
:1033100002D13B68002B09D1FB68012283F85120C0
:10332000FB68002283F85020032358E0FB68DB8F02
:103330009BB2002BC4D138E0FB681B689B6803F08C
:103340000103012B13D1FB681B68DA68FB689B6BD8
:1033500092B21A80FB689B6B9A1CFB689A63FB68AD
:10336000DB8F9BB2013B9AB2FB68DA8718E0FEF76D
:1033700005FC02467B69D31A3A689A4203D83B6837
:10338000B3F1FF3F02D13B68002B09D1FB6801225A
:1033900083F85120FB68002283F8502003231EE0AD
:1033A000FB68DB8F9BB2002BC6D17A693968F8685D
:1033B00000F058FA0346002B02D0FB6820225A6521
:1033C000FB68012283F85120FB68002283F850201B
:1033D000FB685B6D002B01D0012300E00023184641
:1033E0001837BD4680BD80B58AB000AFF860B960BF
:1033F0007A607B8001237B62FEF7C0FB3862FB684A
:1034000093F85130FB77FB685B68BB617B88FB827C
:10341000FB7F012B0CD0BB69B3F5827F06D1FB6823
:103420009B68002B02D1FB7F042B01D002237FE19C
:10343000BB68002B05D07B68002B02D07B88002B5B
:1034400001D1012374E1FB6893F85030012B01D1C5
:1034500002236DE1FB68012283F85020FB6893F89A
:103460005130DBB2042B03D0FB68052283F85120D6
:10347000FB6800225A65FB687A689A63FB687A8861
:10348000DA87FB687A889A87FB68BA681A63FB68F0
:103490007A88DA86FB687A889A86FB6800221A6442
:1034A000FB6800225A64FB681B681B6803F040033A
:1034B000402B07D0FB681B681A68FB681B6842F04A
:1034C00040021A60FB68DB68B3F5006F7ED1FB68D1
:1034D0005B68002B02D0FB8A012B6CD1FB681B6B55
:1034E0001A88FB681B68DA60FB681B6B9A1CFB6818
:1034F0001A63FB68DB8E9BB2013B9AB2FB68DA86EB
:1035000059E0FB681B689B6803F00203022B1BD188
:10351000FB68DB8E9BB2002B16D07B6A012B13D18C
:10352000FB681B6B1A88FB681B68DA60FB681B6B07
:103530009A1CFB681A63FB68DB8E9BB2013B9AB254
:10354000FB68DA8600237B62FB681B689B6803F0DC
:103550000103012B19D1FB68DB8F9BB2002B14D028
:10356000FB681B68DA68FB689B6B92B21A80FB6889
:103570009B6B9A1CFB689A63FB68DB8F9BB2013BD9
:103580009AB2FB68DA8701237B62FEF7F7FA0246FC
:103590003B6AD31A3A6B9A420DD83B6BB3F1FF3FAB
:1035A00009D0FB68012283F85120FB68002283F8D0
:1035B00050200323BCE0FB68DB8E9BB2002BA0D124
:1035C000FB68DB8F9BB2002B9BD182E0FB685B68C2
:1035D000002B02D0FB8A012B71D1FB681A6BFB68B0
:1035E0001B680C3312781A70FB681B6B5A1CFB6843
:1035F0001A63FB68DB8E9BB2013B9AB2FB68DA86EA
:103600005DE0FB681B689B6803F00203022B1CD182
:10361000FB68DB8E9BB2002B17D07B6A012B14D189
:10362000FB681A6BFB681B680C3312781A70FB6816
:103630001B6B5A1CFB681A63FB68DB8E9BB2013B59
:103640009AB2FB68DA8600237B62FB681B689B6882
:1036500003F00103012B19D1FB68DB8F9BB2002B18
:1036600014D0FB681B68DA68FB689B6BD2B21A70D7
:10367000FB689B6B5A1CFB689A63FB68DB8F9BB2F1
:10368000013B9AB2FB68DA8701237B62FEF776FA88
:1036900002463B6AD31A3A6B9A4203D83B6BB3F1AA
:1036A000FF3F02D13B6B002B09D1FB68012283F85D
:1036B0005120FB68002283F85020032338E0FB6888
:1036C000DB8E9BB2002B9CD1FB68DB8F9BB2002B67
:1036D00097D13A6A396BF86800F016F90346002B67
:1036E00008D0FB6820225A65FB68002283F850202E
:1036F00001231DE0FB689B68002B0AD100233B617E
:10370000FB681B68DB683B61FB681B689B683B616F
:103710003B69FB68012283F85120FB68002283F893
:103720005020FB685B6D002B01D0012300E00023DB
:1037300018462837BD4680BD80B483B000AF78609E
:103740007B6893F85130DBB218460C37BD4680BC1D
:103750007047000080B588B000AFF860B9603B608A
:103760001346FB71FEF70AFA0246BB6A9B1A3A68D7
:103770001344FB61FEF702FAB861394B1B685B0129
:103780001B0DFA6902FB03F37B6154E03B68B3F164
:10379000FF3F50D0FEF7F2F90246BB69D31AFA692F
:1037A0009A4202D9FB69002B3DD1FB681B685A681D
:1037B000FB681B6822F0E0025A60FB685B68B3F5A7
:1037C000827F11D1FB689B68B3F5004F04D0FB6882
:1037D0009B68B3F5806F07D1FB681B681A68FB68AC
:1037E0001B6822F040021A60FB689B6AB3F5005F19
:1037F0000FD1FB681B681A68FB681B6822F4005233
:103800001A60FB681B681A68FB681B6842F4005268
:103810001A60FB68012283F85120FB68002283F8BC
:103820005020032317E07B69002B01D10023FB61AB
:103830007B69013B7B61FB681B689A68BB6813402E
:10384000BA689A420CBF01230023DBB21A46FB7907
:103850009A429BD1002318462037BD4680BD00BF49
:103860000000002080B586B002AFF860B9607A60D1
:10387000FB685B68B3F5827F11D1FB689B68B3F589
:10388000004F04D0FB689B68B3F5806F07D1FB68DD
:103890001B681A68FB681B6822F040021A60FB680C
:1038A0005B68B3F5827F17D1FB689B68B3F5806FC7
:1038B00012D17B680093BB6800220121F868FFF7F2
:1038C00049FF0346002B1AD0FB685B6D43F02002D2
:1038D000FB685A65032313E07B680093BB680022F2
:1038E0008021F868FFF736FF0346002B07D0FB68FE
:1038F0005B6D43F02002FB685A65032300E0002360
:1039000018461037BD4680BD80B586B002AFF8605E
:10391000B9607A607B680093BB6801220221F86875
:10392000FFF718FF0346002B07D0FB685B6D43F0E1
:103930002002FB685A65032313E07B680093BB6891
:1039400000228021F868FFF705FF0346002B07D00F
:10395000FB685B6D43F02002FB685A65032300E0BF
:10396000002318461037BD4680BD002B2DE9F047D7
:103970001D46BBBF03F100431D4600232D2388B025
:103980001446B8BF1446129A109E1370149BDDF8AB
:103990004CA023F02008B8F1460F05D0B8F1450F30
:1039A00000D10136022300E0032307AA049206AAED
:1039B000CDE902A2CDE9003622462B4601F08CF873
:1039C000B8F1470F074619D1119BDB070ED500EB65
:1039D00006090022002320462946FCF7E5FF08B12E
:1039E000CDF81C903022079B4B451ED33846079BD1
:1039F000159ADB1B136008B0BDE8F087B8F1460FDD
:103A000000EB0609E5D10378302B0AD10022002310
:103A100020462946FCF7C8FF18B9C6F10106CAF8C6
:103A20000060DAF800309944D3E7591C07911A7006
:103A3000D9E7F7B50029B6BF2D232B234942092921
:103A40000270437029DD0DF107031D460A27B1FB03
:103A5000F7F61A4607FB1614303402F8014C0C46F0
:103A6000632C314603F1FF33F1DC3031941E03F84F
:103A7000011C2346411CAB420AD30DF109039B1ADA
:103A8000AC4288BF002302330344181A03B0F0BDD0
:103A900013F8016B01F8016FEDE7302330318370CB
:103AA000C170031DF1E700002DE9F04F91B00C4605
:103AB000DDF8688016461F46054600F0EBFE0368F9
:103AC00018460893FCF744FB00230E93D8F8003007
:103AD0000990073323F0070303F1080294F818A0B4
:103AE000D4F800B0C8F80020D3E9008929F00043D9
:103AF0000B93CDF828804FF0FF32DDE90A01C4E9CD
:103B000012899C4BFCF782FF70BBDDE90A014FF084
:103B1000FF32984BFCF75CFF30BB0022002340468D
:103B20004946FCF74BFF10B12D2384F84330924AED
:103B3000924BBAF1470F8CBF9046984603234FF043
:103B4000000923612BF004032360334621462846F5
:103B500000970FAA00F0D4F9013040F090804FF0A8
:103B6000FF3011B0BDE8F08F42464B464046494613
:103B7000FCF74CFF48B14B46002BB8BF2D23804AC1
:103B8000B8BF84F843307F4BD3E763680AF0DF01A6
:103B90005A1C3FD10623636000224BF480632360EC
:103BA00006920EAACDE904A20DAA03920DF13302EA
:103BB000CDE9013263684246009328464B460A919C
:103BC000FFF7D3FE0A99804647290D9928D1C81CD2
:103BD00002DB6368994240DDAAF1020A5FFA8AFAC1
:103BE0005246013904F150000D91FFF722FF0E9A61
:103BF00081461318012A236102DC2268D20701D50D
:103C0000013323619DF83330002B9ED02D2384F89F
:103C100043309AE74729BFD1002BBDD10123BAE732
:103C2000BAF1650FDCD9BAF1660F18D100296368C3
:103C30000BDD216113B92268D00702D501330B4493
:103C400023614FF00009A165DCE713B92268D207B0
:103C500001D50233F4E70123F2E74FF0670A0E9B28
:103C6000994205DB23682161D807EAD54B1CE7E7B9
:103C70000029CCBF0122C1F102021344E0E723680E
:103C80005A0507D42369424631462846B8470130D1
:103C90002BD164E7BAF1650F40F2DC80D4E9120160
:103CA00000220023FCF780FE002833D00123314698
:103CB0002846354AB84701303FF451AFDDE90D38A9
:103CC000434502DB2368D8070FD5DDE908233146D9
:103CD0002846B84701303FF442AF4FF0000908F1E1
:103CE000FF3804F11A0AC84509DC23689B0700F174
:103CF0000281E0680F9B9842B8BF184631E7012364
:103D0000524631462846B84701303FF428AF09F102
:103D10000109E8E70D9B002B38DC012331462846DA
:103D2000194AB84701303FF41AAFDDE90D3959EAB5
:103D3000030302D12368D907D7D5DDE9082331462B
:103D40002846B84701303FF40AAF4FF0000A04F1AB
:103D50001A0B0D9B5B42534501DC4B4693E7012355
:103D60005A4631462846B84701303FF4F8AE0AF1CA
:103D7000010AEEE7FFFFEF7FBE800008BA8000086F
:103D8000C6800008C2800008CA800008A36DDDF864
:103D900038A05345A8BF5346002B994636DC4FF058
:103DA000000B29EAE97904F11A02A36D0A93A3EB47
:103DB00009035B4531DC0D9B9A453ADC2368DA0741
:103DC00037D40D9BAAEB03090A9BAAEB0303994581
:103DD000A8BF9946B9F1000F33DC4FF0000829EA7B
:103DE000E97904F11A0B0D9BAAEB0303A3EB09037A
:103DF00043457FF77AAF01235A4631462846B847F4
:103E000001303FF4ACAE08F10108ECE74246314620
:103E10002846B8470130C2D1A1E6012331462846E1
:103E20000A92B84701303FF49AAE0A9A0BF1010B9F
:103E3000BBE73146DDE908232846B8470130C0D149
:103E40008DE60A9A4B46314628464244B84701302F
:103E5000C3D184E6DDF838A0BAF1010F01DCDB073D
:103E600036D50123424631462846B84701303FF453
:103E700076AEDDE9082331462846B84701303FF4E5
:103E80006EAED4E91201002200230AF1FF3AFCF7DA
:103E90008BFDC0B9534608F1010231462846B847A8
:103EA00001300CD15BE601235A4631462846B8471B
:103EB00001303FF454AE08F10108D045F3DB4B4626
:103EC00004F15002E0E64FF0000804F11A0BF4E7A9
:103ED00001234246E1E701234A4631462846B847D6
:103EE00001303FF43CAE08F10108E3680F995B1A1A
:103EF0004345F0DCFDE64FF0000804F11909F4E752
:103F00002DE9F047164698468A680B6907469342A2
:103F1000B8BF1346336091F843200C46DDF820907B
:103F20000AB1013333602368990642BF3368023314
:103F30003360256815F0060506D104F1190AE36817
:103F400032689B1AAB422BDC94F843302268003B6A
:103F500018BF0123920630D44146384604F143028B
:103F6000C847013023D02368226903F00603042BDD
:103F700014BF002533684FF0000608BFE56804F160
:103F80001A0408BFED1A54F8123C08BF25EAE5757B
:103F90009342C4BF9B1AED18B5421AD1002008E025
:103FA0000123524641463846C847013003D14FF0FD
:103FB000FF30BDE8F0870135C1E73020E11881F816
:103FC00043005A1C94F845102244023382F84310EF
:103FD000C2E70123224641463846C8470130E6D0B1
:103FE0000136D9E72DE9FF470F7E9146782F8046AD
:103FF0000C469A460C9E01F1430207D8622F0AD85C
:10400000002F00F0D180582F00F0B88004F1420654
:1040100084F842703AE0A7F16303152BF6D801A1AA
:1040200051F823F07D400008914000080D40000841
:104030000D4000080D4000080D40000891400008A8
:104040000D4000080D4000080D4000080D4000081C
:104050008F410008BB400008494100080D4000089E
:104060000D400008B14100080D400008BB400008A9
:104070000D4000080D4000085141000833681A1D2A
:104080001B68326004F1420684F8423001239CE050
:1040900033682068191D3160060601D51D6803E0EC
:1040A0004506FBD5B3F90050002D03DA2D236D42F0
:1040B00084F843300A23584811E021683368080621
:1040C00053F8045B02D4490648BFADB26F2F33608A
:1040D00014BF0A2308235048002184F8431066685F
:1040E000002EA66005DB21682E4321F0040121602B
:1040F0004BD01646B5FBF3F103FB1157C75D06F82D
:10410000017D2F46BB420D46F4D9082B0BD1236805
:10411000DF0708D5236961689942DEBF302306F8BE
:10412000013C06F1FF36921B22614B462146404678
:10413000CDF800A003AAFFF7E3FE01304AD14FF00B
:10414000FF3004B0BDE8F087236843F0200323600C
:104150007827324884F84570236831681F0651F883
:10416000045B02D45F0648BFADB23160D90744BFDB
:1041700043F0200323601DB11023ADE72648E9E793
:10418000236823F020032360F6E71646BDE7336873
:104190002568181D616930602E061B6801D51960FD
:1041A00002E06806FBD51980002316462361BCE7B0
:1041B000336800211A1D32601E686268304600F0C4
:1041C000E0FB08B1801B606063682361002384F812
:1041D0004330AAE73246494640462369D04701307A
:1041E000ADD023689B0713D4E068039B9842B8BF07
:1041F0001846A6E70123324649464046D0470130DB
:104200009DD00135E36803995B1AAB42F2DCEBE722
:10421000002504F11906F5E7CC800008DD800008D0
:104220002DE9F04F87B003938B6891465A1EB2F583
:10423000AE7F82BF6FF4AE7503EB050B40F25D13EA
:104240000A464FF0000588BF8B600B68804643F438
:10425000F06342F81C3B0C4698BF4FF0000B16462B
:10426000AA462F46CDE9045501920295A2685AB19B
:10427000D9F800301B784E2B62D8402B3AD8A3F1E6
:104280002B01C8B20E2838D91FB1236823F48073DC
:1042900023600AF1FF3ABAF1010F00F21481019B89
:1042A0009E4200F20581012007B0BDE8F08FA3F126
:1042B00061020D2AE8D801A151F822F00544000856
:1042C00089420008894200088942000861440008C8
:1042D0003B44000889420008894200081344000852
:1042E0008942000889420008894200088942000882
:1042F000CF430008A3F14102DBE70E29C4D801A097
:1043000050F821F0BF43000889420008BF4300086D
:104310004F4400088942000861430008A543000893
:10432000A5430008A5430008A5430008A5430008CD
:10433000A5430008A5430008A5430008A5430008BD
:104340006E2B09D8602BB2D8542B7BD0592B9BD124
:10435000072D99D108252FE0742B73D0792BF6E720
:104360002168C8051ED521F0800121600137BBF10D
:10437000000F03D001320BF1FF3BA260A368013BA9
:10438000A360236901332361D9F80430013B002B7A
:10439000C9F8043040F38380D9F800300133C9F8FC
:1043A000003063E71AEB05017FF46EAF0D468A46D5
:1043B000226822F4C072226006F8013BDEE7226820
:1043C00010067FF561AF22F080022260F4E7BAF1B7
:1043D000000F0CD177B9226802F4E061B1F5E06F0B
:1043E00008D122F4F0624FF0010A2260E4E7BAF14A
:1043F000020F51D0012D02D0042D7FF445AF0135BD
:10440000EDB2D9E7BAF1010F7FF43EAF4FF0020AE7
:10441000D2E775B9002F7FF438AF226802F4E0616B
:10442000B1F5E06F40F0FF8022F4F06201252260D8
:10443000C2E7032DE3D0052DDFE7022D7FF424AF83
:104440000325B9E7062D7FF41FAF0725B4E72268DF
:1044500091057FF519AF22F4207222600297ABE735
:10446000226802F4A061B1F5806F05D050057FF598
:104470000BAF002F00F0D780910558BF029922F4AE
:10448000F06258BF791A42F4C0724FF0000758BF6B
:10449000CDE9041622608FE74FF0030A8CE7494606
:1044A0004046D4F88031984700283FF4DFAEEBE671
:1044B000D4F87C314A46404616F8011D98472369D6
:1044C000013B2361EBE66B1E062B24D8022D36D868
:1044D000019B9E427FF6E7AED4F87C314A464046C7
:1044E00016F8011D98472369013B2361F0E7D4F8D2
:1044F0007C314A4640461BF8011D98472369013B21
:1045000023610AF1FF3A5FFA8AFABAF1020FEED19B
:10451000033DEDB2761B2368DA0530D55B0511D576
:10452000019B9E427FF6BFAED4F87C314A4640469E
:1045300016F8011D98472369013B2361F0E7AA465D
:10454000B346DEE716F8011C2369652903F1FF3342
:1045500006F1FF3523610CD045290AD0D4F87C310F
:104560004A4640469847236916F8021C013BB51E8F
:1045700023614A464046D4F87C3198472E4622684B
:1045800012F0100201D000208EE63270236803F48E
:10459000C063B3F5806F25D1029B9F420AD0DA1B1E
:1045A00004F26F139E4228BF04F5B77630461F49C8
:1045B00000F002F900224046019902F0F9FB039B4A
:1045C00025681B6815F0020F06460F4603F104022A
:1045D00015D003990A601B68C3E90067E3680133DB
:1045E000E360D0E7049B002BE4D005990A23404602
:1045F000013102F05DFC049B059EC21AD0E76D07F5
:10460000E7D4039D2A601D6802460B46FCF7FEF9BD
:1046100020B1074800F0D2F92860DFE7304639467C
:10462000FCF752FAF8E7002733E600BFEE800008F7
:104630002F820008002310B50446C0E90033C0E90A
:104640000433836081814366C281836119460822F5
:104650005C3000F016F90D4B246263620C4BA362D0
:104660000C4BE3620C4B23630C4B9C4206D003F1D2
:104670006802944202D0D0339C4205D104F1580024
:10468000BDE8104000F07AB910BD00BFFD4700083A
:104690001F480008574800087B480008AC0200206B
:1046A000024A0349034800F069B800BF0C0000202B
:1046B000657200081C00002041680C4B10B599423F
:1046C000044601D002F0CEFDA168094B994202D008
:1046D000204602F0C7FDE168064B994204D020460F
:1046E000BDE8104002F0BEBD10BD00BFAC0200200E
:1046F000140300207C03002010B50B4B0B4C0C4A1C
:1047000020461A6004210022FFF794FF04F168009C
:1047100001220921FFF78EFF04F1D0000222BDE83B
:1047200010401221FFF786BFE4030020AC020020F6
:10473000A1460008014800F022B900BFED030020A7
:10474000014800F01DB900BFED03002010B504467C
:10475000FFF7F0FF236A1BB1BDE81040FFF7F0BF81
:10476000044B2362044B1B68002BF5D1FFF7C4FFF9
:10477000F2E700BFB9460008E40300202DE9F84342
:104780000746884614460026D4E90195B9F1010987
:1047900005D52468002CF7D13046BDE8F883AB89F5
:1047A000012B07D9B5F90E30013303D0294638461D
:1047B000C04706436835E9E70EB46FF0004110B515
:1047C00000249DB01FAB0290069007910491094808
:1047D000094953F8042B0591006802A901931B9421
:1047E00002F0C4FB029B1C701DB0BDE8104003B07A
:1047F000704700BF180000200802FFFF10B50C46EC
:10480000B1F90E1000F06CF80028ABBF636DA389FE
:104810001B1823F48053ACBF6365A38110BD2DE941
:10482000F0411F468B890546DB050C46164605D52B
:1048300002230022B1F90E1000F040F8A38932469D
:1048400023F48053A38128463B46B4F90E10BDE8FB
:10485000F04100F057B810B50C46B1F90E1000F059
:104860002DF8431CA38915BF606523F4805343F4DE
:104870008053A38118BFA38110BDB1F90E1000F0C1
:104880000DB803460244934200D1704703F8011B60
:10489000F9E70000004870475801002038B50023B0
:1048A000054D044608462B60FDF77DF8431C02D1F8
:1048B0002B6803B1236038BDE803002038B50446F7
:1048C000084611460022054D2A601A46FDF78FF86A
:1048D000431C02D12B6803B1236038BDE8030020DC
:1048E00038B50446084611460022054D2A601A468E
:1048F000FDF720F8431C02D12B6803B1236038BDBB
:10490000E803002038B50446084611460022054D4C
:104910002A601A46FDF72BF8431C02D12B6803B11D
:10492000236038BDE8030020014B1868704700BFC2
:104930001800002070B500260C4D0D4C641BA4100F
:10494000A64209D103F06CFB00260A4D0A4C641BF9
:10495000A410A64205D170BD55F8043B9847013616
:10496000EEE755F8043B98470136F2E7EC8400087F
:10497000EC840008EC840008F0840008704770475D
:104980007047034610B5C9B202449342184601D19C
:10499000002003E0047801338C42F6D110BD0A44B4
:1049A000914200F1FF3300D1704710B511F8014B6F
:1049B000914203F8014FF9D110BD00000048704743
:1049C0000000C07F2DE9F74F03690C690746A34239
:1049D0007EDB013CA30000F1140501F114080093F3
:1049E00005EB8403019358F8243055F82420013353
:1049F0009A42B2FBF3F608EB84092ED34FF0000A7B
:104A0000C446AE46D3465CF8043B98B206FB00A011
:104A10001B0C020C06FB0323DEF8002080B292B2CE
:104A2000121A5A44DEF800004FEA134A9BB2C3EB55
:104A3000224303EB104392B242EA0342E1454FEABC
:104A4000234B4EF8042BDED2009BEB582BB9019B75
:104A5000043B9D421A462FD33C61384601F0CAF907
:104A6000002825DB2946002058F8042BD1F800C087
:104A70001FFA82FE1FFA8CF3A3EB0E030344120C01
:104A8000C2EB234202EB1C429BB243EA0243C14504
:104A90004FEA224041F8043BE6D255F8242005EBCA
:104AA000840322B9043B9D421A460BD33C61013674
:104AB000304603B0BDE8F08F1268043B002ACBD12A
:104AC000013CC6E71268043B002AEFD1013CEAE74B
:104AD0000020EEE7000000002DE9F04F14461D46CF
:104AE000C76997B08146CDE90645239E7FB910205E
:104AF00000F00EFE0246C9F81C0020B9EF21AC4BB5
:104B0000AC4802F019FCC0E901770760C760D9F82A
:104B10001C30196859B15A68012393404A608B6070
:104B2000484600F0EBFE0022D9F81C301A602B1E1C
:104B3000AFBF0023012223F000430793A8BF3360D7
:104B4000DDF81C809C4BB8BF326033EA080312D1F9
:104B500042F20F73229A1360C8F31303234300F049
:104B60005E85249BDFF854A2002B00F060850AF1DB
:104B7000030300F05ABDDDE90623CDE90C23DDE98E
:104B80000C0100220023FBF70FFF074658B1012359
:104B9000229A1360249B13B1894B249A1360DFF887
:104BA00024A200F044BD14AB019315AB009348461A
:104BB000DDE90C2301F036FAC8F30A560390002E03
:104BC00078D0DDE90C010D9BA6F2FF36C3F3130389
:104BD00043F07F5343F440131297194600227A4B57
:104BE000FBF7C2FA6CA3D3E90023FBF775FC6CA3B7
:104BF000D3E90023FBF7BAFA044630460D46FBF72B
:104C000001FC69A3D3E90023FBF766FC02460B46CF
:104C100020462946FBF7AAFA04460D46FBF70CFF8F
:104C200000220746002320462946FBF7C7FE40B175
:104C30003846FBF7E7FB22462B46FBF7B5FE00B9EB
:104C4000013F162F54D8DDE90C01604B03EBC7037D
:104C5000D3E90023FBF7B2FE00284BD00023013F2D
:104C60000F93149B9B1B5A1E49BFC3F101030023E2
:104C700004930023099254BF04930993002F3BDB54
:104C8000099B0E973B44099300230A93209B092B11
:104C900065D8052BC4BF043B2093209BC8BF0024CC
:104CA000A3F10203D8BF0124032B64D8DFE803F08B
:104CB0005355382CDDE914631E4406F23243202B91
:104CC000C1BFC3F1400308FA03F806F2124324FA05
:104CD00003F3D6BFC3F1200348EA030004FA03F04C
:104CE000FBF780FB0122A1F1F873013E129274E7F9
:104CF0000123B5E70F90B4E7049BDB1B04937B42D1
:104D00000A9300230E93C1E701230B93219B07EB2A
:104D1000030B0BF10103012B0893B8BF012306E03D
:104D200001230B93219B002B28DD9B460893002138
:104D30000422D9F81C0002F114059D4226D94160D5
:104D4000484600F09BFD8246002843D1024640F2CF
:104D5000AF111F4BD4E60023E3E70023D5E701247E
:104D600000230B9420934FF0FF3B00221223CDF839
:104D700020B02192DBE701230B93F4E74FF0010B06
:104D80005B46CDF820B0CDF884B0D0E701315200B9
:104D9000D1E700BFAFF3008061436F63A787D23FC5
:104DA000B3C8608B288AC63FFB799F501344D33F1A
:104DB00000810008178100080000F07FFC800008D7
:104DC000CB800008CA8000080000F83FC8820008B5
:104DD0006F810008D9F81C301860089B0E2B00F278
:104DE000A180002C00F09E80002F33DD9C4B07F04B
:104DF0000F0203EBC203F805D3E90034CDE9103408
:104E00004FEA271416D5DDE90C01964B0326D3E9AA
:104E10000823FBF78BFCCDE9060104F00F04914D4C
:104E200054B9DDE91023DDE90601FBF77FFCCDE98C
:104E3000060128E00226F2E7E10708D5DDE91001C6
:104E4000D5E90023FBF748FBCDE9100101366410DA
:104E50000835E5E700F0AF80DDE90C017C42804BCE
:104E600004F00F0203EBC203D3E90023FBF734FB8A
:104E700002260023CDE906017A4D2411002C40F0D2
:104E80008F80002BD3D1DDE906450F9B002B00F06E
:104E90009480002220462946734BFBF78FFD0028A3
:104EA00000F08B80089B002B00F08780BBF1000F87
:104EB00034DD2046002229466C4BFBF70DFB5C4697
:104EC000CDE9060107F1FF3801363046FBF79AFAC3
:104ED000DDE90623FBF700FB0022654BFBF746F9F3
:104EE0000546A1F15076002C6AD1DDE906010022C9
:104EF000604BFBF739F902460B46CDE906232A46FB
:104F00003346FBF779FD002840F09882DDE9060181
:104F10002A4606F10043FBF751FD38BBDDE90C34AE
:104F2000CDE90634159B002BC0F257810E2F00F3FC
:104F300054814B4B03EBC703D3E90034CDE9043470
:104F4000219B002B80F2E580089B002B00F3E18081
:104F50000CD1DDE904010022464BFBF7BDFADDE987
:104F60000623FBF73FFD002800F06682002425465B
:104F7000219B56466FEA030800272146484600F069
:104F8000BDFC002D00F0BD802FB1AF4203D03946EB
:104F9000484600F0B3FC2946484600F0AFFCB0E0BC
:104FA000E20705D5D5E90023FBF796FA0123013680
:104FB0006410083562E7022665E7B846089C84E776
:104FC000274B0B9903EBC40353E9022354440029F4
:104FD00054D000202849FBF7A9FB33462A46FBF7AB
:104FE000C3F85646CDE91001DDE90601FBF724FDC3
:104FF0000546FBF707FA02460B46DDE90601FBF71B
:10500000B3F802460B463035CDE90623DDE910231F
:1050100006F8015BFBF7D2FC002872D1DDE906231C
:1050200000201149FBF7A0F8DDE91023FBF7C6FCCF
:10503000002840F0B480A6423FF470AFDDE91001D3
:1050400000220A4BFBF748FA0022CDE91001DDE906
:105050000601064BFBF740FACDE90601C4E700BFA5
:10506000C8820008A08200080000F03F0000244031
:1050700000001C40000014400000E03F314628467C
:10508000FBF72AFA5646CDE910011394DDE9060133
:10509000FBF7D2FC0546FBF7B5F902460B46DDE906
:1050A0000601FBF761F802460B46303506F8015B56
:1050B000A642CDE906234FF0000224D1DDE910011C
:1050C000AE4BFBF753F802460B46DDE90601FBF752
:1050D00093FC002863D1DDE910230020A749FBF7EA
:1050E00043F802460B46DDE90601FBF767FC0028A2
:1050F0003FF414AF139E731E139316F8013C302B2C
:10510000F8D047463BE09E4BFBF7E6F9CDE90601B8
:10511000BCE75646DDE90645DDE90423204629467D
:10512000FBF704FBFBF788FC8046FBF76BF9DDE936
:105130000423FBF7D1F902460B4620462946FBF72C
:1051400013F808F13004089D06F8014BA6EB0A0499
:10515000A54202460B4633D1FBF708F8DDE90423EC
:1051600004460D46FBF748FCC0B9DDE904232046A0
:105170002946FBF719FC10B118F0010F0ED1484673
:10518000039900F0BBFB00233370229B01371F60A3
:10519000249B002B00F04B821E6048E2B846334649
:1051A0001E4613F8012D392A06D19A45F8D130222E
:1051B00008F101088AF800201A7801321A70A0E775
:1051C00000226F4BFBF788F90022002304460D46AE
:1051D000FBF7EAFB00289FD0D1E70B9A002A00F0EA
:1051E000EA80209A012A00F3CD80129A002A00F06A
:1051F000C18003F233430A9C049E049A01211A449D
:105200000492099A48461A44099200F075FC054632
:1052100066B1099B002B09DDB342A8BF3346049A4F
:10522000F61AD21A0492099AD31A09930A9B0BB35D
:105230000B9B002B00F0C680002C00F0C08029469C
:105240002246484600F010FD039A014605464846AE
:1052500000F068FC03998046484600F04FFB0A9B2B
:105260001B1B0A9300F0B18041460A9A484600F0A1
:10527000FBFC03900121484600F03EFC0E9B0446D7
:10528000002B00F0D8811A460146484600F0ECFC9D
:10529000209B0446012B00F39F80069B002B40F0CF
:1052A0009780079BC3F31303002B40F09380079B69
:1052B00023F000431B0D1B0533B1049B0133049302
:1052C000099B0133099301230A930E9B002B00F0E5
:1052D000B881236904EB8303186900F0C1FBC0F1B6
:1052E0002000099B184410F01F0000F08280C0F1DC
:1052F0002003042B73DD049BC0F11C0003440493C2
:10530000099B064403440993049B002B05DD1A46C0
:105310004846039900F002FD0390099B002B05DD30
:1053200021461A46484600F0F9FC04460F9B002B24
:1053300061D02146039800F05DFD00285BDA002370
:105340000A224846039900F0FBFA0B9B07F1FF384D
:105350000390002B00F07781294600230A2248465B
:1053600000F0EEFABBF1000F05466FDC209B022B2C
:1053700049DC6BE0149BC3F136033CE70000E03FDF
:1053800000002440089B5C1E0A9BA34209DB1C1BF7
:10539000089B002BBFF630AF049B089A9E1A00238F
:1053A0002BE70A9B0E9AE31A1A440A94049E0024DF
:1053B000089B0E9221E70A9C049E0B9D28E7DDF8CE
:1053C0000C8051E70A9A039950E7CDF80C8051E719
:1053D000002379E7069B77E700230A9379E793D0C8
:1053E000049A1C331A440492099A1E441A440992DE
:1053F0008AE70346F4E7089BB846002B20DC9B466F
:10540000209B022B1EDDBBF1000F7FF4B1AD2146C6
:105410005B460522484600F093FA0146044603988D
:1054200000F0E8FC00287FF7A3AD5646312308F1D1
:10543000010806F8013B9FE5B846089C2546F4E7BD
:10544000DDF820B00B9B002B00F00181002E05DD64
:1054500029463246484600F061FC05460A9B002B6F
:105460005CD04846696800F009FA064628B9024649
:1054700040F2EF21804BFFF743BB2A6905F10C0195
:10548000023292000C30FFF78AFA01223146484678
:1054900000F044FC2F4605460AF1010304930AEB91
:1054A0000B030A93069B03F001030993049B214617
:1054B000039803F1FF3BFFF785FA03463946303383
:1054C000069003980B9300F095FC2A46089021461D
:1054D000484600F0ABFCC26806460B9B02BB014687
:1054E000039800F087FC02460B9B31464846CDE905
:1054F0000B3200F003FA209B0C9A049E42EA03014F
:10550000099B19430B9B0DD1392B27D0089A002AF0
:1055100001DD069B31338BF800302EE52846B9E7D4
:105520000122E2E70899002904DB20980143099849
:10553000014320D1002AEEDD01220399484604935D
:1055400000F0ECFB2146039000F054FC0028049B83
:1055500002DCE0D1DA07DED5392BDAD139238BF83A
:10556000003033461E4616F8012C013B392A4ED036
:1055700001321A7001E5002A03DD392BEED0013328
:10558000C9E7049A0A9902F8013C8A4228D000230C
:105590000A220399484600F0D3F9AF4203904FF036
:1055A00000034FF00A023946484607D100F0C8F917
:1055B00007460546049B0133049377E700F0C0F9E2
:1055C0002946074600230A22484600F0B9F9054655
:1055D000F0E7BBF1000FCCBF5E4601260027564422
:1055E000012203994846049300F098FB214603905A
:1055F00000F000FC0028B4DC02D1049BDB07B0D42F
:1056000033461E4613F8012D302AFAD0B5E49A45E8
:10561000A8D1312308F101088AF80030ADE4249BB9
:10562000DFF858A01BB10AF10803249A1360504612
:1056300017B0BDE8F08F209B012B7FF72EAE0E9B9D
:105640000A9301204DE6BBF1000F7FF7D9AE564615
:1056500021460398FFF7B6F900F1300306F8013B45
:10566000A6EB0A029345B4DD00230A2248460399BB
:1056700000F066F90390EBE76F810008F380000803
:1056800038B50546002940D051F8043C0C1F002BCA
:10569000B8BFE41800F0E6F81C4A136833B9636039
:1056A00014602846BDE8384000F0E2B8A34208D9AB
:1056B000206821188B4201BF19685B6809182160B6
:1056C000EDE71A465B680BB1A342FAD9116850188E
:1056D000A0420BD120680144501883421160E0D1F0
:1056E00018685B68084410605360DAE702D90C233D
:1056F0002B60D6E7206821188B4201BF19685B68D0
:105700000918216063605460CBE738BDF4030020C2
:10571000024B0146186800F025B800BF18000020B1
:1057200070B50F4E0C463168054611B901F0EEFD1B
:1057300030602146284601F0E9FD431C03D14FF0BB
:10574000FF34204670BDC41C24F00304A042F8D0EE
:10575000211A284601F0DAFD0130F2D1EFE700BF4F
:10576000F00300202DE9F843CD1C25F00305083592
:105770000C2D38BF0C25002D064601DBA94204D9AB
:105780000C2333600020BDE8F883DFF8D48000F0FC
:1057900069F8D8F800301C4644BB29463046FFF76C
:1057A000BFFF431C044658D1D8F800402746002FBD
:1057B00043D1002C4BD023683946304604EB030913
:1057C00001F0A4FD814542D1216830466D1A294679
:1057D000FFF7A6FF01303AD023682B442360D8F8A6
:1057E00000305A6862BBC8F800700FE02268521B94
:1057F00020D40B2A17D96119A342256018BF59601C
:10580000636808BFC8F8001062514B60304600F072
:105810002FF804F10B00231D20F00700C21A1CBF53
:105820001B1AA350AFE76268A3420CBFC8F8002060
:105830005A60EBE723466468AEE73C467F68B6E70C
:105840001A465B68A342FBD100235360DEE70C23BA
:105850003046336000F00CF894E70560D6E700BFEF
:10586000F40300200148FFF78AB800BFEC030020D2
:105870000148FFF785B800BFEC03002070B5C6698A
:1058800004460D4676B91020FFF742FF0246E0615C
:1058900020B96B21174B184801F04EFDC0E9016695
:1058A0000660C660E669F36883B1E369DB6853F8B4
:1058B0002500B8B9012101FA05F6721D20469200B3
:1058C00001F058FD60B1C0E901560EE0212204212B
:1058D000204601F04FFDE369F060DB68002BE4D166
:1058E000002070BD026843F825200023C0E903337F
:1058F000F7E700BF008100088081000870B5C66925
:1059000005460C4676B91020FFF702FF0246E86113
:1059100020B98F21084B094801F00EFDC0E901664E
:105920000660C6603CB1EB696268DB6853F8221020
:10593000216043F8224070BD00810008808100088A
:105940002DE9F04107460C461E4600200D6901F185
:10595000140CDCF80030013099B202FB01611E0C1E
:105960000B0C02FB063389B201EB034185424FEA7F
:1059700013464CF8041BECDC0EB3A368AB4219DCF5
:10598000616838460131FFF779FF804628B9024641
:10599000BA210C4B0C4801F0CFFC226904F10C0138
:1059A000023292000C30FEF7FAFF21463846FFF72C
:1059B000A5FF444604EB850301355E612561204661
:1059C000BDE8F0816F810008808100082DE9F8436F
:1059D000154609221F4608330C4693FBF2F3064690
:1059E000012200219A4209DB3046FFF747FF40B908
:1059F0000246D321184B194801F09EFC5200013198
:105A0000F0E7089B092D43614FF00103036116DDA8
:105A100004F10909C8462C4418F8013B01460A2242
:105A20003046303BFFF78CFFA045F5D1A5F10804C7
:105A30004C442D1B6319BB4204DBBDE8F8830925E8
:105A40000A34F6E714F8013B01460A223046303B9F
:105A5000FFF776FFEEE700BF6F8100088081000846
:105A60000346B0F5803F3ABF030410200020B3F195
:105A7000807F3CBF1B020830B3F1805F3CBF1B013D
:105A80000430B3F1804F3CBF9B000230002B05DB9C
:105A900013F0804F00F1010008BF20207047036819
:105AA000024613F007000BD0D90721D4980749BF4D
:105AB0005B089B08012013605CBF022013607047E5
:105AC00099B209B910201B0CD9B209B908301B0AC8
:105AD000190704BF1B090430990704BF9B08023053
